{
  "contractName": "CloLotteryContract",
  "abi": [
    {
      "constant": true,
      "inputs": [],
      "name": "ticketPrice",
      "outputs": [
        {
          "name": "",
          "type": "uint256"
        }
      ],
      "payable": false,
      "stateMutability": "view",
      "type": "function"
    },
    {
      "constant": true,
      "inputs": [],
      "name": "_roundId",
      "outputs": [
        {
          "name": "",
          "type": "uint256"
        }
      ],
      "payable": false,
      "stateMutability": "view",
      "type": "function"
    },
    {
      "constant": true,
      "inputs": [],
      "name": "underLimitPrize",
      "outputs": [
        {
          "name": "",
          "type": "uint256"
        }
      ],
      "payable": false,
      "stateMutability": "view",
      "type": "function"
    },
    {
      "constant": true,
      "inputs": [],
      "name": "winningPrize",
      "outputs": [
        {
          "name": "",
          "type": "uint256"
        }
      ],
      "payable": false,
      "stateMutability": "view",
      "type": "function"
    },
    {
      "constant": true,
      "inputs": [],
      "name": "owner",
      "outputs": [
        {
          "name": "",
          "type": "address"
        }
      ],
      "payable": false,
      "stateMutability": "view",
      "type": "function"
    },
    {
      "constant": true,
      "inputs": [],
      "name": "lastWinTicketNumber",
      "outputs": [
        {
          "name": "",
          "type": "uint32"
        }
      ],
      "payable": false,
      "stateMutability": "view",
      "type": "function"
    },
    {
      "constant": true,
      "inputs": [],
      "name": "_state",
      "outputs": [
        {
          "name": "",
          "type": "uint8"
        }
      ],
      "payable": false,
      "stateMutability": "view",
      "type": "function"
    },
    {
      "constant": true,
      "inputs": [],
      "name": "FOUNDER",
      "outputs": [
        {
          "name": "",
          "type": "address"
        }
      ],
      "payable": false,
      "stateMutability": "view",
      "type": "function"
    },
    {
      "constant": true,
      "inputs": [],
      "name": "roundOpenDuration",
      "outputs": [
        {
          "name": "",
          "type": "uint256"
        }
      ],
      "payable": false,
      "stateMutability": "view",
      "type": "function"
    },
    {
      "constant": false,
      "inputs": [
        {
          "name": "newOwner",
          "type": "address"
        }
      ],
      "name": "transferOwnership",
      "outputs": [],
      "payable": false,
      "stateMutability": "nonpayable",
      "type": "function"
    },
    {
      "constant": true,
      "inputs": [],
      "name": "roundDuration",
      "outputs": [
        {
          "name": "",
          "type": "uint256"
        }
      ],
      "payable": false,
      "stateMutability": "view",
      "type": "function"
    },
    {
      "constant": true,
      "inputs": [],
      "name": "founderEarnPercent",
      "outputs": [
        {
          "name": "",
          "type": "uint8"
        }
      ],
      "payable": false,
      "stateMutability": "view",
      "type": "function"
    },
    {
      "inputs": [
        {
          "name": "scheduleAddr",
          "type": "address"
        }
      ],
      "payable": false,
      "stateMutability": "nonpayable",
      "type": "constructor"
    },
    {
      "anonymous": false,
      "inputs": [],
      "name": "NewRoundOpenEvent",
      "type": "event"
    },
    {
      "anonymous": false,
      "inputs": [],
      "name": "FinishRoundEvent",
      "type": "event"
    },
    {
      "anonymous": false,
      "inputs": [],
      "name": "BuyTicketEvent",
      "type": "event"
    },
    {
      "anonymous": false,
      "inputs": [],
      "name": "CloseRoundEvent",
      "type": "event"
    },
    {
      "anonymous": false,
      "inputs": [
        {
          "indexed": true,
          "name": "ticket",
          "type": "uint32"
        }
      ],
      "name": "WinTicketEvent",
      "type": "event"
    },
    {
      "anonymous": false,
      "inputs": [],
      "name": "NotEnoughFundToInitEvent",
      "type": "event"
    },
    {
      "anonymous": false,
      "inputs": [
        {
          "indexed": false,
          "name": "queryId",
          "type": "bytes32"
        },
        {
          "indexed": false,
          "name": "delay",
          "type": "uint256"
        },
        {
          "indexed": false,
          "name": "gasLimit",
          "type": "uint256"
        }
      ],
      "name": "DeterminingScheduleEvent",
      "type": "event"
    },
    {
      "anonymous": false,
      "inputs": [
        {
          "indexed": true,
          "name": "previousOwner",
          "type": "address"
        },
        {
          "indexed": true,
          "name": "newOwner",
          "type": "address"
        }
      ],
      "name": "OwnershipTransferred",
      "type": "event"
    },
    {
      "constant": true,
      "inputs": [],
      "name": "getCurrentRoundInfo",
      "outputs": [
        {
          "name": "roundId",
          "type": "uint256"
        },
        {
          "name": "ticketPrice",
          "type": "uint256"
        },
        {
          "name": "startTime",
          "type": "uint256"
        },
        {
          "name": "endTime",
          "type": "uint256"
        },
        {
          "name": "state",
          "type": "uint8"
        },
        {
          "name": "currentPrize",
          "type": "uint256"
        }
      ],
      "payable": false,
      "stateMutability": "view",
      "type": "function"
    },
    {
      "constant": true,
      "inputs": [
        {
          "name": "_id",
          "type": "uint256"
        }
      ],
      "name": "getRoundInfo",
      "outputs": [
        {
          "name": "roundId",
          "type": "uint256"
        },
        {
          "name": "ticketPrice",
          "type": "uint256"
        },
        {
          "name": "startTime",
          "type": "uint256"
        },
        {
          "name": "endTime",
          "type": "uint256"
        },
        {
          "name": "state",
          "type": "uint8"
        },
        {
          "name": "winPrize",
          "type": "uint256"
        }
      ],
      "payable": false,
      "stateMutability": "view",
      "type": "function"
    },
    {
      "constant": false,
      "inputs": [],
      "name": "init",
      "outputs": [],
      "payable": true,
      "stateMutability": "payable",
      "type": "function"
    },
    {
      "constant": false,
      "inputs": [],
      "name": "withdrawFee",
      "outputs": [],
      "payable": false,
      "stateMutability": "nonpayable",
      "type": "function"
    },
    {
      "constant": false,
      "inputs": [
        {
          "name": "ticketNumbers",
          "type": "uint32[]"
        }
      ],
      "name": "buyTickets",
      "outputs": [],
      "payable": true,
      "stateMutability": "payable",
      "type": "function"
    },
    {
      "constant": false,
      "inputs": [],
      "name": "schedule",
      "outputs": [],
      "payable": false,
      "stateMutability": "nonpayable",
      "type": "function"
    },
    {
      "constant": false,
      "inputs": [
        {
          "name": "queryId",
          "type": "bytes32"
        }
      ],
      "name": "__callback",
      "outputs": [],
      "payable": false,
      "stateMutability": "nonpayable",
      "type": "function"
    },
    {
      "constant": false,
      "inputs": [],
      "name": "stopRound",
      "outputs": [],
      "payable": false,
      "stateMutability": "nonpayable",
      "type": "function"
    },
    {
      "constant": false,
      "inputs": [],
      "name": "kill",
      "outputs": [],
      "payable": false,
      "stateMutability": "nonpayable",
      "type": "function"
    }
  ],
  "bytecode": "0x60606040527381029273484ed1167910dd38f7b73000d342f3cf600160006101000a81548173ffffffffffffffffffffffffffffffffffffffff021916908373ffffffffffffffffffffffffffffffffffffffff160217905550610258600455603c60055560055460045403600655670de0b6b3a7640000600755671bc16d674ec800006008556014600a60006101000a81548160ff021916908360ff16021790555034156100ad57600080fd5b60405160208061186b83398101604052808051906020019091905050336000806101000a81548173ffffffffffffffffffffffffffffffffffffffff021916908373ffffffffffffffffffffffffffffffffffffffff16021790555080600c60006101000a81548173ffffffffffffffffffffffffffffffffffffffff021916908373ffffffffffffffffffffffffffffffffffffffff160217905550506117118061015a6000396000f30060606040526004361061011d576000357c0100000000000000000000000000000000000000000000000000000000900463ffffffff1680631209b1f6146101225780631e185e4d1461014b5780632b83728f1461017457806341c0e1b51461019d57806355b895eb146101b2578063747dff42146101c757806379b03c7a1461022157806388c3ffb01461024a5780638da5cb5b146102b2578063a10aed2714610307578063a1cb31b71461033c578063b0604a2614610373578063ca58f2d314610388578063dab23f7c146103dd578063e1059fe514610404578063e1c7392a14610453578063e941fa781461045d578063f038b9e814610472578063f2fde38b1461049b578063f7cb789a146104d4578063f872a7c1146104fd575b600080fd5b341561012d57600080fd5b61013561052c565b6040518082815260200191505060405180910390f35b341561015657600080fd5b61015e610532565b6040518082815260200191505060405180910390f35b341561017f57600080fd5b610187610538565b6040518082815260200191505060405180910390f35b34156101a857600080fd5b6101b061053e565b005b34156101bd57600080fd5b6101c5610636565b005b34156101d257600080fd5b6101da61073e565b6040518087815260200186815260200185815260200184815260200183600381111561020257fe5b60ff168152602001828152602001965050505050505060405180910390f35b341561022c57600080fd5b610234610775565b6040518082815260200191505060405180910390f35b341561025557600080fd5b61026b600480803590602001909190505061077b565b6040518087815260200186815260200185815260200184815260200183600381111561029357fe5b60ff168152602001828152602001965050505050505060405180910390f35b34156102bd57600080fd5b6102c5610870565b604051808273ffffffffffffffffffffffffffffffffffffffff1673ffffffffffffffffffffffffffffffffffffffff16815260200191505060405180910390f35b341561031257600080fd5b61031a610895565b604051808263ffffffff1663ffffffff16815260200191505060405180910390f35b341561034757600080fd5b61034f6108ab565b6040518082600381111561035f57fe5b60ff16815260200191505060405180910390f35b341561037e57600080fd5b6103866108be565b005b341561039357600080fd5b61039b610b67565b604051808273ffffffffffffffffffffffffffffffffffffffff1673ffffffffffffffffffffffffffffffffffffffff16815260200191505060405180910390f35b34156103e857600080fd5b610402600480803560001916906020019091905050610b8d565b005b610451600480803590602001908201803590602001908080602002602001604051908101604052809392919081815260200183836020028082843782019150505050505091905050610c7d565b005b61045b610e01565b005b341561046857600080fd5b610470610eee565b005b341561047d57600080fd5b610485610fd9565b6040518082815260200191505060405180910390f35b34156104a657600080fd5b6104d2600480803573ffffffffffffffffffffffffffffffffffffffff16906020019091905050610fdf565b005b34156104df57600080fd5b6104e7611134565b6040518082815260200191505060405180910390f35b341561050857600080fd5b61051061113a565b604051808260ff1660ff16815260200191505060405180910390f35b60075481565b600d5481565b60085481565b6000809054906101000a900473ffffffffffffffffffffffffffffffffffffffff1673ffffffffffffffffffffffffffffffffffffffff163373ffffffffffffffffffffffffffffffffffffffff1614151561059957600080fd5b600060038111156105a657fe5b600060149054906101000a900460ff1660038111156105c157fe5b14806105f157506003808111156105d457fe5b600060149054906101000a900460ff1660038111156105ef57fe5b145b15156105fc57600080fd5b6000809054906101000a900473ffffffffffffffffffffffffffffffffffffffff1673ffffffffffffffffffffffffffffffffffffffff16ff5b6000809054906101000a900473ffffffffffffffffffffffffffffffffffffffff1673ffffffffffffffffffffffffffffffffffffffff163373ffffffffffffffffffffffffffffffffffffffff1614151561069157600080fd5b6000600e6000600d548152602001908152602001600020600301541415156106b857600080fd5b600160038111156106c557fe5b600060149054906101000a900460ff1660038111156106e057fe5b1415156106ec57600080fd5b6003600060146101000a81548160ff0219169083600381111561070b57fe5b02179055507f61b5c34558ccfb30731e54881138dd6f543ff1247751d363f13309533b4efb6260405160405180910390a1565b600080600080600080600d5495506107558661077b565b809650819750829850839950849a50859b50505050505050909192939495565b60095481565b600080600080600080869550600e6000600d548152602001908152602001600020600501549450600e6000600d54815260200190815260200160002060020160009054906101000a900465ffffffffffff1665ffffffffffff169350600454600e6000600d54815260200190815260200160002060020160009054906101000a900465ffffffffffff1665ffffffffffff16019250600060149054906101000a900460ff169150600d5487141561084b573073ffffffffffffffffffffffffffffffffffffffff16319050610867565b600e6000600d5481526020019081526020016000206001015490505b91939550919395565b6000809054906101000a900473ffffffffffffffffffffffffffffffffffffffff1681565b600a60019054906101000a900463ffffffff1681565b600060149054906101000a900460ff1681565b600080600080600260038111156108d157fe5b600060149054906101000a900460ff1660038111156108ec57fe5b14156109ab576005549350620186a09250600c60009054906101000a900473ffffffffffffffffffffffffffffffffffffffff1673ffffffffffffffffffffffffffffffffffffffff1663e7572230846040518263ffffffff167c010000000000000000000000000000000000000000000000000000000002815260040180828152602001915050602060405180830381600087803b151561098d57600080fd5b5af1151561099a57600080fd5b505050604051805190509150610a60565b60065493506207a1209250600c60009054906101000a900473ffffffffffffffffffffffffffffffffffffffff1673ffffffffffffffffffffffffffffffffffffffff1663e7572230846040518263ffffffff167c010000000000000000000000000000000000000000000000000000000002815260040180828152602001915050602060405180830381600087803b1515610a4657600080fd5b5af11515610a5357600080fd5b5050506040518051905091505b600c60009054906101000a900473ffffffffffffffffffffffffffffffffffffffff1673ffffffffffffffffffffffffffffffffffffffff16631d9b1d6f8386866040518463ffffffff167c010000000000000000000000000000000000000000000000000000000002815260040180838152602001828152602001925050506020604051808303818588803b1515610af857600080fd5b5af11515610b0557600080fd5b505050506040518051905090507f1471823b59c38c738513136d464114a3294e6c495f40588f8a8b8b15c4dba208818585604051808460001916600019168152602001838152602001828152602001935050505060405180910390a150505050565b600160009054906101000a900473ffffffffffffffffffffffffffffffffffffffff1681565b60016003811115610b9a57fe5b600060149054906101000a900460ff166003811115610bb557fe5b1480610be6575060026003811115610bc957fe5b600060149054906101000a900460ff166003811115610be457fe5b145b1515610bf157600080fd5b60016003811115610bfe57fe5b600060149054906101000a900460ff166003811115610c1957fe5b1415610c50576002600060146101000a81548160ff02191690836003811115610c3e57fe5b0217905550610c4b6108be565b610c7a565b600f600554811515610c5e57fe5b04600b54014310151515610c7157600080fd5b610c7961114d565b5b50565b600060016003811115610c8c57fe5b600060149054906101000a900460ff166003811115610ca757fe5b141515610cb357600080fd5b6001825110151515610cc457600080fd5b34600754835102141515610cd757600080fd5b600090505b8151811015610d9f57600e6000600d54815260200190815260200160002060060160008383815181101515610d0d57fe5b9060200190602002015163ffffffff1663ffffffff1681526020019081526020016000208054806001018281610d439190611694565b9160005260206000209001600033909190916101000a81548173ffffffffffffffffffffffffffffffffffffffff021916908373ffffffffffffffffffffffffffffffffffffffff160217905550508080600101915050610cdc565b34600e6000600d548152602001908152602001600020600301600082825401925050819055504340600381600019169055507ff545aced7f15cc40bbe9250b7d749f8d22943df9218ad1c2f2772fd316c231b160405160405180910390a15050565b6000809054906101000a900473ffffffffffffffffffffffffffffffffffffffff1673ffffffffffffffffffffffffffffffffffffffff163373ffffffffffffffffffffffffffffffffffffffff16141515610e5c57600080fd5b60006003811115610e6957fe5b600060149054906101000a900460ff166003811115610e8457fe5b1480610eb45750600380811115610e9757fe5b600060149054906101000a900460ff166003811115610eb257fe5b145b1515610ebf57600080fd5b600854600954340110151515610ed457600080fd5b34600960008282540192505081905550610eec611520565b565b60008060009054906101000a900473ffffffffffffffffffffffffffffffffffffffff1673ffffffffffffffffffffffffffffffffffffffff163373ffffffffffffffffffffffffffffffffffffffff16141515610f4b57600080fd5b600854600954111515610f5d57600080fd5b6064600a60009054906101000a900460ff1660ff166008546009540302811515610f8357fe5b049050806009600082825403925050819055503373ffffffffffffffffffffffffffffffffffffffff166108fc829081150290604051600060405180830381858888f193505050501515610fd657600080fd5b50565b60065481565b6000809054906101000a900473ffffffffffffffffffffffffffffffffffffffff1673ffffffffffffffffffffffffffffffffffffffff163373ffffffffffffffffffffffffffffffffffffffff1614151561103a57600080fd5b600073ffffffffffffffffffffffffffffffffffffffff168173ffffffffffffffffffffffffffffffffffffffff161415151561107657600080fd5b8073ffffffffffffffffffffffffffffffffffffffff166000809054906101000a900473ffffffffffffffffffffffffffffffffffffffff1673ffffffffffffffffffffffffffffffffffffffff167f8be0079c531659141344cd1fd0a4f28419497f9722a3daafe3b4186f6b6457e060405160405180910390a3806000806101000a81548173ffffffffffffffffffffffffffffffffffffffff021916908373ffffffffffffffffffffffffffffffffffffffff16021790555050565b60045481565b600a60009054906101000a900460ff1681565b6000806000806000633b9aca0060026111646115f8565b63ffffffff169060020a0263ffffffff1681151561117e57fe5b04600a60016101000a81548163ffffffff021916908363ffffffff160217905550600e6000600d5481526020019081526020016000206006016000600a60019054906101000a900463ffffffff1663ffffffff1663ffffffff1681526020019081526020016000208054905094503073ffffffffffffffffffffffffffffffffffffffff1631600e6000600d5481526020019081526020016000206001018190555043600e6000600d54815260200190815260200160002060040181905550600a60019054906101000a900463ffffffff16600e6000600d54815260200190815260200160002060000160006101000a81548163ffffffff021916908363ffffffff16021790555042600e6000600d54815260200190815260200160002060020160066101000a81548165ffffffffffff021916908365ffffffffffff16021790555060008511156114cb5760646002600a60009054906101000a900460ff1660ff163073ffffffffffffffffffffffffffffffffffffffff1631020181151561130457fe5b043073ffffffffffffffffffffffffffffffffffffffff16310393506064600a60009054906101000a900460ff1660ff163073ffffffffffffffffffffffffffffffffffffffff16310281151561135757fe5b049250848481151561136557fe5b049150600090505b8481101561144157600e6000600d5481526020019081526020016000206006016000600a60019054906101000a900463ffffffff1663ffffffff1663ffffffff168152602001908152602001600020818154811015156113c957fe5b906000526020600020900160009054906101000a900473ffffffffffffffffffffffffffffffffffffffff1673ffffffffffffffffffffffffffffffffffffffff166108fc839081150290604051600060405180830381858888f19350505050151561143457600080fd5b808060010191505061136d565b600160009054906101000a900473ffffffffffffffffffffffffffffffffffffffff1673ffffffffffffffffffffffffffffffffffffffff166108fc849081150290604051600060405180830381858888f1935050505015156114a357600080fd5b60008060146101000a81548160ff021916908360038111156114c157fe5b02179055506114d4565b6114d3611520565b5b600a60019054906101000a900463ffffffff1663ffffffff167ffcd3b54d1fb8aea6fe70794c6061ef154b9c8dc500daddff1174c20ce6aabf7860405160405180910390a25050505050565b6001600060146101000a81548160ff0219169083600381111561153f57fe5b021790555042600e600061155161167e565b815260200190815260200160002060020160006101000a81548165ffffffffffff021916908365ffffffffffff160217905550600954600e6000600d54815260200190815260200160002060010181905550600754600e6000600d548152602001908152602001600020600501819055506115ca6108be565b7f85a2128fc0ccf1e8286b1d820b9b8f1e87f7de5a07c7f94005317bfe7a9faa7a60405160405180910390a1565b600060035443404244604051808381526020018281526020019250505060405180910390206040518083600019166000191681526020018260001916600019168152602001925050506040518091039020604051808360001916600019168152602001826000191660001916815260200192505050604051809103902060019004905090565b6000600d60008154600101919050819055905090565b8154818355818115116116bb578183600052602060002091820191016116ba91906116c0565b5b505050565b6116e291905b808211156116de5760008160009055506001016116c6565b5090565b905600a165627a7a723058201ef04813637bc6b57a2b1a0d66212a233eeab91819c8eb41517797b04ec79e820029",
  "source": "pragma solidity ^0.4.21;\n\nimport \"./Ownable.sol\";\n\ncontract ScheduleContractInterface {\n    address public cbAddress;\n    function schedule(uint timestamp, uint256 estimatedGas) payable returns (bytes32 _id);\n    function getPrice(uint _gaslimit) view returns(uint256 gasPrice);\n}\n\ncontract CloLotteryContract is Ownable {\n\n    event NewRoundOpenEvent();\n    event FinishRoundEvent();\n    event BuyTicketEvent();\n    event CloseRoundEvent();\n    event WinTicketEvent(uint32 indexed ticket);\n    event NotEnoughFundToInitEvent();\n    event DeterminingScheduleEvent(bytes32 queryId, uint delay, uint gasLimit);\n    enum State {Initializing, Open, Processing, Closed}\n\n    State public _state;\n    address public FOUNDER = 0x81029273484ed1167910dd38f7b73000d342f3cf;\n\n    mapping(uint32=> address[]) private buyerTicketNumbers;\n    bytes32 private _lastBuyBlockHash;  // the last block hash user buys the ticket before closing a round\n    uint  public roundDuration = 600; // default 1 day (will change to 8400)\n    uint private timeToDeterminingWinner = 60; // (will change to 300)  wait about 300 seconds before determining the winner\n    uint public roundOpenDuration = roundDuration - timeToDeterminingWinner;\n    uint256 public ticketPrice = 1000000000000000000; // default 1 ether\n    uint256 public underLimitPrize = 2 ether; //  the minimum prize to initialize a round\n    uint256 public winningPrize; // total ether will be paid for the winners, the value will increase when more players buy tickets\n    uint8 public founderEarnPercent = 20; // the percentage the founder earn when finish a round\n    uint32 public lastWinTicketNumber;\n    uint256 closedBlockNumber; // the block number when closing a round, this is use to prevent user buys ticket at determining the winner time\n    ScheduleContractInterface scheduledContract;\n    uint public _roundId;\n    mapping(uint=>Round) rounds;\n    function CloLotteryContract(address scheduleAddr) {\n       scheduledContract = ScheduleContractInterface(scheduleAddr);\n    }\n\n    address[] winnerAddresses;\n    mapping(address=>uint) winners;\n    struct Round {\n        uint32 winNumber;\n        uint256 winPrize;\n        uint48 startTime;\n        uint48 endTime;\n        uint256 boughtAmount;\n        uint256 finishBlock;\n        uint256 ticketPrice;\n        mapping(uint32=> address[]) buyerTicketNumbers;\n    }\n\n    modifier isCbAddress() {\n        //require(msg.sender == scheduledContract.cbAddress);\n        _;\n    }\n\n    function getCurrentRoundInfo() public view returns(uint roundId,\n                                                uint256 ticketPrice,\n                                                uint256 startTime,\n                                                uint256 endTime,\n                                                State state,\n                                                uint256 currentPrize) {\n        roundId = _roundId;\n        (roundId, ticketPrice, startTime, endTime, state, currentPrize) =  getRoundInfo(roundId);\n    }\n\n    function getRoundInfo(uint _id) public view returns(uint roundId,\n        uint256 ticketPrice,\n        uint256 startTime,\n        uint256 endTime,\n        State state,\n        uint256 winPrize) {\n        roundId = _id;\n        ticketPrice = rounds[_roundId].ticketPrice;\n        startTime = uint256(rounds[_roundId].startTime);\n        endTime = uint256(rounds[_roundId].startTime + roundDuration);\n        state = _state;\n        if (_id == _roundId) {\n            winPrize = address(this).balance;\n        } else {\n            winPrize = rounds[_roundId].winPrize;\n        }\n    }\n\n    function nextRound() private returns(uint) {\n        return ++_roundId;\n    }\n\n    function init() public payable onlyOwner {\n        require(_state == State.Initializing || _state == State.Closed);\n        require(msg.value + winningPrize >= underLimitPrize);\n        winningPrize += msg.value;\n        initNewRound();\n    }\n\n    function initNewRound() private {\n        _state = State.Open;\n        rounds[nextRound()].startTime = uint48(now);\n        rounds[_roundId].winPrize = winningPrize;\n        rounds[_roundId].ticketPrice = ticketPrice;\n        schedule();\n        NewRoundOpenEvent();\n    }\n\n    function withdrawFee() onlyOwner {\n        require(winningPrize > underLimitPrize);\n        uint256 fee = (winningPrize-underLimitPrize) * founderEarnPercent / 100;\n        winningPrize -= fee;\n        msg.sender.transfer(fee);\n    }\n\n\n    function buyTickets(uint32[] ticketNumbers) public payable {\n\n        require(_state == State.Open);\n        require(ticketNumbers.length >= 1);\n        require(ticketNumbers.length * ticketPrice == msg.value);\n        for(uint i = 0; i < ticketNumbers.length; i++) {\n            rounds[_roundId].buyerTicketNumbers[ticketNumbers[i]].push(msg.sender);\n        }\n        rounds[_roundId].boughtAmount += msg.value;\n        _lastBuyBlockHash = block.blockhash(block.number);\n        BuyTicketEvent();\n    }\n\n    function schedule() {\n\n        if(_state == State.Processing) {\n            // schedule to determinate the winner\n            uint delay = timeToDeterminingWinner;\n            uint gasLimit = 100000;\n            uint price = scheduledContract.getPrice(gasLimit);\n\n        } else {\n            // schedule to closed the round and prepare to determinate the winner\n            delay = roundOpenDuration;\n            gasLimit = 500000;\n            price = scheduledContract.getPrice(gasLimit);\n\n        }\n        bytes32 id = scheduledContract.schedule.value(price)(delay, gasLimit);\n        DeterminingScheduleEvent(id, delay, gasLimit);\n    }\n\n    function finish() private {\n\n      //  lastWinTicketNumber = (random() << 2) / 10000; //  uncomment when goline, ticket number is from 0-999999\n        lastWinTicketNumber = (random() << 2) / 1000000000;// remove when go line, current ticket number is 0-9\n        uint winnerCount = rounds[_roundId].buyerTicketNumbers[lastWinTicketNumber].length;\n\n        rounds[_roundId].winPrize = address(this).balance;\n        rounds[_roundId].finishBlock = block.number;\n        rounds[_roundId].winNumber = lastWinTicketNumber;\n        rounds[_roundId].endTime = uint48(now);\n        if (winnerCount > 0) {\n            uint256 totalPaid = address(this).balance - (address(this).balance * founderEarnPercent + 2) / 100; // need to pay for founder and keep 2 percent to run contract\n            uint founderEarns = address(this).balance * founderEarnPercent / 100;\n            uint256 balanceToDistribute = totalPaid / winnerCount;\n            for (uint i = 0; i < winnerCount; i++) {\n                rounds[_roundId].buyerTicketNumbers[lastWinTicketNumber][i].transfer(balanceToDistribute);\n            }\n            FOUNDER.transfer(founderEarns);\n            _state = State.Initializing;\n        } else {\n            initNewRound();\n        }\n        emit WinTicketEvent(lastWinTicketNumber);\n    }\n\n    function random() private view returns (uint32) {\n        return uint32(uint256(keccak256(_lastBuyBlockHash,\n                                keccak256(block.blockhash(block.number),\n                                    keccak256(block.timestamp, block.difficulty)))));\n    }\n\n    function __callback(bytes32 queryId) public isCbAddress {\n        require(_state == State.Open || _state == State.Processing);\n         if(_state == State.Open) {\n             _state = State.Processing;\n             schedule();\n         } else {\n             require(block.number >= closedBlockNumber + timeToDeterminingWinner/15);\n             finish();\n         }\n\n    }\n\n    function stopRound() public onlyOwner {\n        //  can stop  contract if no user buys ticket\n        require(rounds[_roundId].boughtAmount == 0);\n        require(_state == State.Open);\n        _state = State.Closed;\n        CloseRoundEvent();\n    }\n\n\n    function kill() public onlyOwner {\n        //  can destroy contract if no user buys ticket\n        require(_state == State.Initializing || _state == State.Closed);\n        selfdestruct(owner);\n    }\n\n}\n",
  "sourcePath": "/home/chuonghd/Project/smartcontract/clolottery/backend/contracts/CloLotteryContract.sol",
  "compiler": {
    "name": "solc",
    "version": "0.4.21+commit.dfe3193c.Emscripten.clang"
  },
  "schemaVersion": "2.0.0",
  "updatedAt": "2018-10-07T03:27:47.736Z"
}