{
  "contractName": "CloLotteryContract",
  "abi": [
    {
      "constant": true,
      "inputs": [],
      "name": "ticketPrice",
      "outputs": [
        {
          "name": "",
          "type": "uint256"
        }
      ],
      "payable": false,
      "stateMutability": "view",
      "type": "function"
    },
    {
      "constant": true,
      "inputs": [],
      "name": "underLimitPrize",
      "outputs": [
        {
          "name": "",
          "type": "uint256"
        }
      ],
      "payable": false,
      "stateMutability": "view",
      "type": "function"
    },
    {
      "constant": true,
      "inputs": [],
      "name": "durationBlock",
      "outputs": [
        {
          "name": "",
          "type": "uint256"
        }
      ],
      "payable": false,
      "stateMutability": "view",
      "type": "function"
    },
    {
      "constant": true,
      "inputs": [],
      "name": "winningPrize",
      "outputs": [
        {
          "name": "",
          "type": "uint256"
        }
      ],
      "payable": false,
      "stateMutability": "view",
      "type": "function"
    },
    {
      "constant": true,
      "inputs": [],
      "name": "roundId",
      "outputs": [
        {
          "name": "",
          "type": "uint256"
        }
      ],
      "payable": false,
      "stateMutability": "view",
      "type": "function"
    },
    {
      "constant": true,
      "inputs": [],
      "name": "owner",
      "outputs": [
        {
          "name": "",
          "type": "address"
        }
      ],
      "payable": false,
      "stateMutability": "view",
      "type": "function"
    },
    {
      "constant": true,
      "inputs": [],
      "name": "lastWinTicket",
      "outputs": [
        {
          "name": "",
          "type": "uint8"
        }
      ],
      "payable": false,
      "stateMutability": "view",
      "type": "function"
    },
    {
      "constant": true,
      "inputs": [],
      "name": "state",
      "outputs": [
        {
          "name": "",
          "type": "uint8"
        }
      ],
      "payable": false,
      "stateMutability": "view",
      "type": "function"
    },
    {
      "constant": false,
      "inputs": [
        {
          "name": "newOwner",
          "type": "address"
        }
      ],
      "name": "transferOwnership",
      "outputs": [],
      "payable": false,
      "stateMutability": "nonpayable",
      "type": "function"
    },
    {
      "constant": true,
      "inputs": [],
      "name": "founderEarnPercent",
      "outputs": [
        {
          "name": "",
          "type": "uint8"
        }
      ],
      "payable": false,
      "stateMutability": "view",
      "type": "function"
    },
    {
      "inputs": [],
      "payable": false,
      "stateMutability": "nonpayable",
      "type": "constructor"
    },
    {
      "anonymous": false,
      "inputs": [],
      "name": "NewRoundOpenEvent",
      "type": "event"
    },
    {
      "anonymous": false,
      "inputs": [],
      "name": "FinishRoundEvent",
      "type": "event"
    },
    {
      "anonymous": false,
      "inputs": [],
      "name": "BuyTicketEvent",
      "type": "event"
    },
    {
      "anonymous": false,
      "inputs": [],
      "name": "CloseRoundEvent",
      "type": "event"
    },
    {
      "anonymous": false,
      "inputs": [
        {
          "indexed": true,
          "name": "ticket",
          "type": "uint8"
        }
      ],
      "name": "WinTicketEvent",
      "type": "event"
    },
    {
      "anonymous": false,
      "inputs": [],
      "name": "NotEnoughFundToInitEvent",
      "type": "event"
    },
    {
      "anonymous": false,
      "inputs": [
        {
          "indexed": false,
          "name": "state",
          "type": "uint8"
        }
      ],
      "name": "StateEvent",
      "type": "event"
    },
    {
      "anonymous": false,
      "inputs": [
        {
          "indexed": true,
          "name": "previousOwner",
          "type": "address"
        },
        {
          "indexed": true,
          "name": "newOwner",
          "type": "address"
        }
      ],
      "name": "OwnershipTransferred",
      "type": "event"
    },
    {
      "constant": false,
      "inputs": [],
      "name": "init",
      "outputs": [],
      "payable": true,
      "stateMutability": "payable",
      "type": "function"
    },
    {
      "constant": false,
      "inputs": [],
      "name": "withdrawFee",
      "outputs": [],
      "payable": false,
      "stateMutability": "nonpayable",
      "type": "function"
    },
    {
      "constant": false,
      "inputs": [
        {
          "name": "ticketNumbers",
          "type": "uint8[]"
        }
      ],
      "name": "buyTickets",
      "outputs": [],
      "payable": true,
      "stateMutability": "payable",
      "type": "function"
    },
    {
      "constant": false,
      "inputs": [],
      "name": "schedule",
      "outputs": [],
      "payable": false,
      "stateMutability": "nonpayable",
      "type": "function"
    },
    {
      "constant": false,
      "inputs": [
        {
          "name": "queryId",
          "type": "bytes32"
        }
      ],
      "name": "__callback",
      "outputs": [],
      "payable": false,
      "stateMutability": "nonpayable",
      "type": "function"
    }
  ],
  "bytecode": "0x60606040526120d06004556014600555670de0b6b3a7640000600655671bc16d674ec800006007556019600960006101000a81548160ff021916908360ff160217905550341561004e57600080fd5b336000806101000a81548173ffffffffffffffffffffffffffffffffffffffff021916908373ffffffffffffffffffffffffffffffffffffffff1602179055506110518061009d6000396000f3006060604052600436106100db576000357c0100000000000000000000000000000000000000000000000000000000900463ffffffff1680631209b1f6146100e05780632b83728f14610109578063606292781461013257806379b03c7a1461015b5780638cd221c9146101845780638da5cb5b146101ad578063b0604a2614610202578063be36e63814610217578063c19d93fb14610246578063dab23f7c1461027d578063e1c7392a146102a4578063e941fa78146102ae578063f2fde38b146102c3578063f872a7c1146102fc578063fbc51c9c1461032b575b600080fd5b34156100eb57600080fd5b6100f361037a565b6040518082815260200191505060405180910390f35b341561011457600080fd5b61011c610380565b6040518082815260200191505060405180910390f35b341561013d57600080fd5b610145610386565b6040518082815260200191505060405180910390f35b341561016657600080fd5b61016e61038c565b6040518082815260200191505060405180910390f35b341561018f57600080fd5b610197610392565b6040518082815260200191505060405180910390f35b34156101b857600080fd5b6101c0610398565b604051808273ffffffffffffffffffffffffffffffffffffffff1673ffffffffffffffffffffffffffffffffffffffff16815260200191505060405180910390f35b341561020d57600080fd5b6102156103bd565b005b341561022257600080fd5b61022a610563565b604051808260ff1660ff16815260200191505060405180910390f35b341561025157600080fd5b610259610576565b6040518082600381111561026957fe5b60ff16815260200191505060405180910390f35b341561028857600080fd5b6102a2600480803560001916906020019091905050610589565b005b6102ac6106b7565b005b34156102b957600080fd5b6102c1610775565b005b34156102ce57600080fd5b6102fa600480803573ffffffffffffffffffffffffffffffffffffffff16906020019091905050610860565b005b341561030757600080fd5b61030f6109b5565b604051808260ff1660ff16815260200191505060405180910390f35b6103786004808035906020019082018035906020019080806020026020016040519081016040528093929190818152602001838360200280828437820191505050505050919050506109c8565b005b60065481565b60075481565b60045481565b60085481565b600c5481565b6000809054906101000a900473ffffffffffffffffffffffffffffffffffffffff1681565b6000600260038111156103cc57fe5b600260009054906101000a900460ff1660038111156103e757fe5b14156104ad5762061a809050600b60009054906101000a900473ffffffffffffffffffffffffffffffffffffffff1673ffffffffffffffffffffffffffffffffffffffff16631d9b1d6f600f60055402836040518363ffffffff167c01000000000000000000000000000000000000000000000000000000000281526004018083815260200182815260200192505050602060405180830381600087803b151561049057600080fd5b5af1151561049d57600080fd5b5050506040518051905050610560565b600b60009054906101000a900473ffffffffffffffffffffffffffffffffffffffff1673ffffffffffffffffffffffffffffffffffffffff16631d9b1d6f600454836040518363ffffffff167c01000000000000000000000000000000000000000000000000000000000281526004018083815260200182815260200192505050602060405180830381600087803b151561054757600080fd5b5af1151561055457600080fd5b50505060405180519050505b50565b600960019054906101000a900460ff1681565b600260009054906101000a900460ff1681565b6001600381111561059657fe5b600260009054906101000a900460ff1660038111156105b157fe5b14806105e25750600260038111156105c557fe5b600260009054906101000a900460ff1660038111156105e057fe5b145b15156105ed57600080fd5b600160038111156105fa57fe5b600260009054906101000a900460ff16600381111561061557fe5b14156106435760028060006101000a81548160ff0219169083600381111561063957fe5b02179055506106b4565b600554600a54014311151561065757600080fd5b61065f610b14565b7f5301f71e86136a02ec0fe354c993ee9555118237c77118b68b78b522b6656370600260009054906101000a900460ff16604051808260038111156106a057fe5b60ff16815260200191505060405180910390a15b50565b6000809054906101000a900473ffffffffffffffffffffffffffffffffffffffff1673ffffffffffffffffffffffffffffffffffffffff163373ffffffffffffffffffffffffffffffffffffffff1614151561071257600080fd5b6000600381111561071f57fe5b600260009054906101000a900460ff16600381111561073a57fe5b14151561074657600080fd5b60075460085434011015151561075b57600080fd5b34600860008282540192505081905550610773610e83565b565b60008060009054906101000a900473ffffffffffffffffffffffffffffffffffffffff1673ffffffffffffffffffffffffffffffffffffffff163373ffffffffffffffffffffffffffffffffffffffff161415156107d257600080fd5b6007546008541115156107e457600080fd5b6064600960009054906101000a900460ff1660ff16600754600854030281151561080a57fe5b049050806008600082825403925050819055503373ffffffffffffffffffffffffffffffffffffffff166108fc829081150290604051600060405180830381858888f19350505050151561085d57600080fd5b50565b6000809054906101000a900473ffffffffffffffffffffffffffffffffffffffff1673ffffffffffffffffffffffffffffffffffffffff163373ffffffffffffffffffffffffffffffffffffffff161415156108bb57600080fd5b600073ffffffffffffffffffffffffffffffffffffffff168173ffffffffffffffffffffffffffffffffffffffff16141515156108f757600080fd5b8073ffffffffffffffffffffffffffffffffffffffff166000809054906101000a900473ffffffffffffffffffffffffffffffffffffffff1673ffffffffffffffffffffffffffffffffffffffff167f8be0079c531659141344cd1fd0a4f28419497f9722a3daafe3b4186f6b6457e060405160405180910390a3806000806101000a81548173ffffffffffffffffffffffffffffffffffffffff021916908373ffffffffffffffffffffffffffffffffffffffff16021790555050565b600960009054906101000a900460ff1681565b6000600160038111156109d757fe5b600260009054906101000a900460ff1660038111156109f257fe5b1415156109fe57600080fd5b6001825110151515610a0f57600080fd5b34600654835102141515610a2257600080fd5b600090505b8151811015610ae457600d6000600c54815260200190815260200160002060040160008383815181101515610a5857fe5b9060200190602002015160ff1660ff1681526020019081526020016000208054806001018281610a889190610fd4565b9160005260206000209001600033909190916101000a81548173ffffffffffffffffffffffffffffffffffffffff021916908373ffffffffffffffffffffffffffffffffffffffff160217905550508080600101915050610a27565b7ff545aced7f15cc40bbe9250b7d749f8d22943df9218ad1c2f2772fd316c231b160405160405180910390a15050565b60008060008043600381905550610b29610f34565b600960016101000a81548160ff021916908360ff160217905550600960019054906101000a900460ff1660ff167fe4a7afaaa5129618e5c1dcc8fed44fde0b893703dce1b525302b1b724cf64dc860405160405180910390a2600d6000600c5481526020019081526020016000206004016000600960019054906101000a900460ff1660ff1660ff16815260200190815260200160002080549050935060646005600960009054906101000a900460ff1660ff163073ffffffffffffffffffffffffffffffffffffffff16310201811515610c0057fe5b043073ffffffffffffffffffffffffffffffffffffffff163103925082600d6000600c5481526020019081526020016000206001018190555043600d6000600c54815260200190815260200160002060030181905550600960019054906101000a900460ff16600d6000600c54815260200190815260200160002060000160006101000a81548160ff021916908360ff16021790555042600d6000600c54815260200190815260200160002060020160066101000a81548165ffffffffffff021916908365ffffffffffff1602179055506000841115610e51578383811515610ce557fe5b049150600090505b83811015610db857600d6000600c5481526020019081526020016000206004016000600960019054906101000a900460ff1660ff1660ff16815260200190815260200160002081815481101515610d4057fe5b906000526020600020900160009054906101000a900473ffffffffffffffffffffffffffffffffffffffff1673ffffffffffffffffffffffffffffffffffffffff166108fc839081150290604051600060405180830381858888f193505050501515610dab57600080fd5b8080600101915050610ced565b6000809054906101000a900473ffffffffffffffffffffffffffffffffffffffff1673ffffffffffffffffffffffffffffffffffffffff166108fc6064600960009054906101000a900460ff1660ff163073ffffffffffffffffffffffffffffffffffffffff163102811515610e2a57fe5b049081150290604051600060405180830381858888f193505050501515610e5057600080fd5b5b6003600260006101000a81548160ff02191690836003811115610e7057fe5b0217905550610e7d610e83565b50505050565b6001600260006101000a81548160ff02191690836003811115610ea257fe5b021790555042600d6000610eb4610fbe565b815260200190815260200160002060020160006101000a81548165ffffffffffff021916908365ffffffffffff160217905550600854600d6000600c548152602001908152602001600020600101819055507f85a2128fc0ccf1e8286b1d820b9b8f1e87f7de5a07c7f94005317bfe7a9faa7a60405160405180910390a1565b600060fb6003544340424460405180838152602001828152602001925050506040518091039020604051808360001916600019168152602001826000191660001916815260200192505050604051809103902060405180838152602001826000191660001916815260200192505050604051809103902060019004811515610fb857fe5b06905090565b6000600c60008154600101919050819055905090565b815481835581811511610ffb57818360005260206000209182019101610ffa9190611000565b5b505050565b61102291905b8082111561101e576000816000905550600101611006565b5090565b905600a165627a7a723058200a7783df3be51859074f263139ba1c60bfc96a9823435da53a14fea5a79398e10029",
  "source": "pragma solidity ^0.4.21;\n\nimport \"./Ownable.sol\";\n\ncontract ScheduleContractInterface {\n    address public cbAddress;\n    function schedule(uint timestamp, uint256 estimatedGas) payable returns (bytes32 _id);\n}\n\ncontract CloLotteryContract is Ownable {\n\n    event NewRoundOpenEvent();\n    event FinishRoundEvent();\n    event BuyTicketEvent();\n    event CloseRoundEvent();\n    event WinTicketEvent(uint8 indexed ticket);\n    event NotEnoughFundToInitEvent();\n    enum State {Initializing, Open, Processing, Finished}\n\n    mapping(uint8=> address[]) buyers;\n    State public state;\n    uint lastBuyBlock;\n    uint  public durationBlock = 8400;\n    uint pinBlock = 20; // ~300 seconds\n    uint256 public ticketPrice = 1000000000000000000; // 1 ether    uint256 public winningPrize; // in wei\n    uint256 public underLimitPrize = 2 ether;\n    uint256 public winningPrize;\n    uint8 public founderEarnPercent = 25;\n    uint8 public lastWinTicket;\n    uint closedBlock;\n    ScheduleContractInterface scheduledContract;\n    uint public roundId;\n    mapping(uint=>Round) rounds;\n    function CloLotteryContract() {\n      //  scheduledContract = ScheduleContractInterface(scheduleContractAddress);\n    }\n\n    struct Round {\n        uint8 winNumber;\n        uint256 winPrize;\n        uint48 startTime;\n        uint48 endTime;\n        uint256 finishBlock;\n        mapping(uint8=> address[]) buyers;\n    }\n\n    function nextRound() private returns(uint) {\n        return ++roundId;\n    }\n    function init() public payable onlyOwner {\n        require(state == State.Initializing);\n        require(msg.value + winningPrize >= underLimitPrize);\n        winningPrize += msg.value;\n        initNewRound();\n    }\n    function initNewRound() private {\n        state = State.Open;\n        rounds[nextRound()].startTime = uint48(now);\n        rounds[roundId].winPrize = winningPrize;\n        NewRoundOpenEvent();\n    }\n\n    function withdrawFee() onlyOwner {\n        require(winningPrize > underLimitPrize);\n        uint256 fee = (winningPrize-underLimitPrize) * founderEarnPercent / 100;\n        winningPrize -= fee;\n        msg.sender.transfer(fee);\n    }\n\n\n    function buyTickets(uint8[] ticketNumbers) public payable {\n\n        require(state == State.Open);\n        require(ticketNumbers.length >= 1);\n        require(ticketNumbers.length * ticketPrice == msg.value);\n        for(uint i = 0; i < ticketNumbers.length; i++) {\n            rounds[roundId].buyers[ticketNumbers[i]].push(msg.sender);\n        }\n        BuyTicketEvent();\n    }\n\n    function schedule() {\n        if(state == State.Processing) {\n            uint256 gasFee = 400000;\n            scheduledContract.schedule(pinBlock*15, gasFee);\n        } else {\n            scheduledContract.schedule(durationBlock, gasFee);\n        }\n    }\n\n    function finish() private {\n        lastBuyBlock = block.number;\n        lastWinTicket = random();\n        emit WinTicketEvent(lastWinTicket);\n        uint winnerCount = rounds[roundId].buyers[lastWinTicket].length;\n        uint256 totalPaid = this.balance - (this.balance * founderEarnPercent + 5) / 100;\n        rounds[roundId].winPrize = totalPaid;\n        rounds[roundId].finishBlock = block.number;\n        rounds[roundId].winNumber = lastWinTicket;\n        rounds[roundId].endTime = uint48(now);\n        if (winnerCount > 0) {\n            uint256 balanceToDistribute = totalPaid / winnerCount;\n            for (uint i = 0; i < winnerCount; i++) {\n                rounds[roundId].buyers[lastWinTicket][i].transfer(balanceToDistribute);\n            }\n            owner.transfer(this.balance * founderEarnPercent / 100);\n        }\n        state = State.Finished;\n        initNewRound();\n    }\n\n    function random() private view returns (uint8) {\n        return uint8(uint256(keccak256(lastBuyBlock,\n                                keccak256(block.blockhash(block.number),\n                                    keccak256(block.timestamp, block.difficulty))))%251);\n    }\n\n    event StateEvent(State state);\n    function __callback(bytes32 queryId) {\n        require(state == State.Open || state == State.Processing);\n         if(state == State.Open) {\n             state = State.Processing;\n            // schedule();\n             return;\n         } else {\n             require(block.number > closedBlock+pinBlock);\n             finish();\n         }\n        StateEvent(state);\n\n\n\n    }\n\n}\n",
  "sourcePath": "/home/chuonghd/Project/smartcontract/clolottery/backend/contracts/CloLotteryContract.sol",
  "compiler": {
    "name": "solc",
    "version": "0.4.21+commit.dfe3193c.Emscripten.clang"
  },
  "schemaVersion": "2.0.0",
  "updatedAt": "2018-10-05T17:20:05.817Z"
}