{
  "contractName": "ScheduleContract",
  "abi": [
    {
      "constant": true,
      "inputs": [],
      "name": "owner",
      "outputs": [
        {
          "name": "",
          "type": "address"
        }
      ],
      "payable": false,
      "stateMutability": "view",
      "type": "function"
    },
    {
      "constant": false,
      "inputs": [
        {
          "name": "newOwner",
          "type": "address"
        }
      ],
      "name": "transferOwnership",
      "outputs": [],
      "payable": false,
      "stateMutability": "nonpayable",
      "type": "function"
    },
    {
      "inputs": [],
      "payable": false,
      "stateMutability": "nonpayable",
      "type": "constructor"
    },
    {
      "anonymous": false,
      "inputs": [
        {
          "indexed": true,
          "name": "queryId",
          "type": "bytes32"
        },
        {
          "indexed": true,
          "name": "timestamp",
          "type": "uint256"
        },
        {
          "indexed": false,
          "name": "estimatedGas",
          "type": "uint256"
        },
        {
          "indexed": true,
          "name": "target",
          "type": "address"
        }
      ],
      "name": "ScheduledEvent",
      "type": "event"
    },
    {
      "anonymous": false,
      "inputs": [
        {
          "indexed": true,
          "name": "previousOwner",
          "type": "address"
        },
        {
          "indexed": true,
          "name": "newOwner",
          "type": "address"
        }
      ],
      "name": "OwnershipTransferred",
      "type": "event"
    },
    {
      "constant": false,
      "inputs": [
        {
          "name": "timestamp",
          "type": "uint256"
        },
        {
          "name": "estimatedGas",
          "type": "uint256"
        }
      ],
      "name": "schedule",
      "outputs": [
        {
          "name": "_id",
          "type": "bytes32"
        }
      ],
      "payable": true,
      "stateMutability": "payable",
      "type": "function"
    }
  ],
  "bytecode": "0x6060604052341561000f57600080fd5b336000806101000a81548173ffffffffffffffffffffffffffffffffffffffff021916908373ffffffffffffffffffffffffffffffffffffffff1602179055506103378061005e6000396000f300606060405260043610610057576000357c0100000000000000000000000000000000000000000000000000000000900463ffffffff1680631d9b1d6f1461005c5780638da5cb5b14610099578063f2fde38b146100ee575b600080fd5b61007b6004808035906020019091908035906020019091905050610127565b60405180826000191660001916815260200191505060405180910390f35b34156100a457600080fd5b6100ac610191565b604051808273ffffffffffffffffffffffffffffffffffffffff1673ffffffffffffffffffffffffffffffffffffffff16815260200191505060405180910390f35b34156100f957600080fd5b610125600480803573ffffffffffffffffffffffffffffffffffffffff169060200190919050506101b6565b005b6000808311151561013757600080fd5b3373ffffffffffffffffffffffffffffffffffffffff168382600019167f99c1466e80ed26c263612785fb56424407b9ed7b73e786f8cc0a2e1251da01e0856040518082815260200191505060405180910390a492915050565b6000809054906101000a900473ffffffffffffffffffffffffffffffffffffffff1681565b6000809054906101000a900473ffffffffffffffffffffffffffffffffffffffff1673ffffffffffffffffffffffffffffffffffffffff163373ffffffffffffffffffffffffffffffffffffffff1614151561021157600080fd5b600073ffffffffffffffffffffffffffffffffffffffff168173ffffffffffffffffffffffffffffffffffffffff161415151561024d57600080fd5b8073ffffffffffffffffffffffffffffffffffffffff166000809054906101000a900473ffffffffffffffffffffffffffffffffffffffff1673ffffffffffffffffffffffffffffffffffffffff167f8be0079c531659141344cd1fd0a4f28419497f9722a3daafe3b4186f6b6457e060405160405180910390a3806000806101000a81548173ffffffffffffffffffffffffffffffffffffffff021916908373ffffffffffffffffffffffffffffffffffffffff160217905550505600a165627a7a7230582043c017c23dc4d73545f00be82516290f0edbb3ea63d37e57338a95d2b48a37d60029",
  "source": "pragma solidity ^0.4.21;\nimport \"./Ownable.sol\";\n\ncontract ScheduleContract is Ownable {\n\n    event ScheduledEvent(bytes32  indexed queryId, uint indexed timestamp, uint estimatedGas, address indexed target);\n\n    function ScheduleContract(){\n\n    }\n\n    function schedule(uint timestamp, uint256 estimatedGas) payable  returns (bytes32 _id){\n            require(timestamp > 0);\n            ScheduledEvent(_id, timestamp, estimatedGas, msg.sender);\n    }\n}\n",
  "sourcePath": "/home/chuonghd/Project/smartcontract/clolottery/backend/contracts/ScheduleContract.sol",
  "compiler": {
    "name": "solc",
    "version": "0.4.21+commit.dfe3193c.Emscripten.clang"
  },
  "schemaVersion": "2.0.0",
  "updatedAt": "2018-10-05T17:00:02.648Z"
}