{
  "contractName": "ScheduleContract",
  "abi": [
    {
      "constant": true,
      "inputs": [],
      "name": "owner",
      "outputs": [
        {
          "name": "",
          "type": "address"
        }
      ],
      "payable": false,
      "stateMutability": "view",
      "type": "function"
    },
    {
      "constant": true,
      "inputs": [],
      "name": "cbAddress",
      "outputs": [
        {
          "name": "",
          "type": "address"
        }
      ],
      "payable": false,
      "stateMutability": "view",
      "type": "function"
    },
    {
      "constant": false,
      "inputs": [
        {
          "name": "newOwner",
          "type": "address"
        }
      ],
      "name": "transferOwnership",
      "outputs": [],
      "payable": false,
      "stateMutability": "nonpayable",
      "type": "function"
    },
    {
      "inputs": [],
      "payable": false,
      "stateMutability": "nonpayable",
      "type": "constructor"
    },
    {
      "anonymous": false,
      "inputs": [
        {
          "indexed": true,
          "name": "target",
          "type": "address"
        },
        {
          "indexed": true,
          "name": "queryId",
          "type": "bytes32"
        },
        {
          "indexed": true,
          "name": "timestamp",
          "type": "uint256"
        },
        {
          "indexed": false,
          "name": "gasLimit",
          "type": "uint256"
        }
      ],
      "name": "ScheduledEvent",
      "type": "event"
    },
    {
      "anonymous": false,
      "inputs": [
        {
          "indexed": true,
          "name": "previousOwner",
          "type": "address"
        },
        {
          "indexed": true,
          "name": "newOwner",
          "type": "address"
        }
      ],
      "name": "OwnershipTransferred",
      "type": "event"
    },
    {
      "constant": false,
      "inputs": [
        {
          "name": "callbackAddress",
          "type": "address"
        }
      ],
      "name": "setCbAddress",
      "outputs": [],
      "payable": false,
      "stateMutability": "nonpayable",
      "type": "function"
    },
    {
      "constant": true,
      "inputs": [
        {
          "name": "_gaslimit",
          "type": "uint256"
        }
      ],
      "name": "getPrice",
      "outputs": [
        {
          "name": "gasPrice",
          "type": "uint256"
        }
      ],
      "payable": false,
      "stateMutability": "view",
      "type": "function"
    },
    {
      "constant": true,
      "inputs": [],
      "name": "getGasPrice",
      "outputs": [
        {
          "name": "",
          "type": "uint256"
        }
      ],
      "payable": false,
      "stateMutability": "view",
      "type": "function"
    },
    {
      "constant": false,
      "inputs": [],
      "name": "setGasPrice",
      "outputs": [],
      "payable": true,
      "stateMutability": "payable",
      "type": "function"
    },
    {
      "constant": false,
      "inputs": [
        {
          "name": "_addr",
          "type": "address"
        }
      ],
      "name": "withdrawFunds",
      "outputs": [],
      "payable": false,
      "stateMutability": "nonpayable",
      "type": "function"
    },
    {
      "constant": false,
      "inputs": [
        {
          "name": "_timestamp",
          "type": "uint256"
        },
        {
          "name": "_gaslimit",
          "type": "uint256"
        }
      ],
      "name": "schedule",
      "outputs": [
        {
          "name": "_id",
          "type": "bytes32"
        }
      ],
      "payable": true,
      "stateMutability": "payable",
      "type": "function"
    }
  ],
  "bytecode": "0x60606040526404a817c80060015573911eac91a26019f968bbba2a7b7aaa9afa12ab3d600260006101000a81548173ffffffffffffffffffffffffffffffffffffffff021916908373ffffffffffffffffffffffffffffffffffffffff160217905550341561006d57600080fd5b336000806101000a81548173ffffffffffffffffffffffffffffffffffffffff021916908373ffffffffffffffffffffffffffffffffffffffff160217905550610853806100bc6000396000f300606060405260043610610099576000357c0100000000000000000000000000000000000000000000000000000000900463ffffffff1680631d9b1d6f1461009e578063455259cb146100db57806368742da6146101045780637078aa281461013d5780638da5cb5b14610147578063b62a717c1461019c578063c281d19e146101d5578063e75722301461022a578063f2fde38b14610261575b600080fd5b6100bd600480803590602001909190803590602001909190505061029a565b60405180826000191660001916815260200191505060405180910390f35b34156100e657600080fd5b6100ee6104a4565b6040518082815260200191505060405180910390f35b341561010f57600080fd5b61013b600480803573ffffffffffffffffffffffffffffffffffffffff169060200190919050506104ae565b005b610145610563565b005b341561015257600080fd5b61015a6105da565b604051808273ffffffffffffffffffffffffffffffffffffffff1673ffffffffffffffffffffffffffffffffffffffff16815260200191505060405180910390f35b34156101a757600080fd5b6101d3600480803573ffffffffffffffffffffffffffffffffffffffff169060200190919050506105ff565b005b34156101e057600080fd5b6101e861069e565b604051808273ffffffffffffffffffffffffffffffffffffffff1673ffffffffffffffffffffffffffffffffffffffff16815260200191505060405180910390f35b341561023557600080fd5b61024b60048080359060200190919050506106c4565b6040518082815260200191505060405180910390f35b341561026c57600080fd5b610298600480803573ffffffffffffffffffffffffffffffffffffffff169060200190919050506106d2565b005b60008160008082600154029150813410151561049657813403905060008111156102f5573373ffffffffffffffffffffffffffffffffffffffff166108fc829081150290604051600060405180830381858888f19350505050505b624f1a00420186118061030757504585115b1561031157600080fd5b3033600460003373ffffffffffffffffffffffffffffffffffffffff1673ffffffffffffffffffffffffffffffffffffffff16815260200190815260200160002054604051808473ffffffffffffffffffffffffffffffffffffffff1673ffffffffffffffffffffffffffffffffffffffff166c010000000000000000000000000281526014018373ffffffffffffffffffffffffffffffffffffffff1673ffffffffffffffffffffffffffffffffffffffff166c01000000000000000000000000028152601401828152602001935050505060405180910390209350600460003373ffffffffffffffffffffffffffffffffffffffff1673ffffffffffffffffffffffffffffffffffffffff168152602001908152602001600020600081548092919060010191905055508584600019163373ffffffffffffffffffffffffffffffffffffffff167f72818f2dbb12787441f111a3d90afb9bd93a349e59f66eb5ee2fe37e754a6c20886040518082815260200191505060405180910390a461049b565b600080fd5b50505092915050565b6000600154905090565b6000809054906101000a900473ffffffffffffffffffffffffffffffffffffffff1673ffffffffffffffffffffffffffffffffffffffff163373ffffffffffffffffffffffffffffffffffffffff1614151561050957600080fd5b8073ffffffffffffffffffffffffffffffffffffffff166108fc3073ffffffffffffffffffffffffffffffffffffffff16319081150290604051600060405180830381858888f19350505050151561056057600080fd5b50565b6000809054906101000a900473ffffffffffffffffffffffffffffffffffffffff1673ffffffffffffffffffffffffffffffffffffffff163373ffffffffffffffffffffffffffffffffffffffff161415156105be57600080fd5b6402540be400341115156105d157600080fd5b34600181905550565b6000809054906101000a900473ffffffffffffffffffffffffffffffffffffffff1681565b6000809054906101000a900473ffffffffffffffffffffffffffffffffffffffff1673ffffffffffffffffffffffffffffffffffffffff163373ffffffffffffffffffffffffffffffffffffffff1614151561065a57600080fd5b80600260006101000a81548173ffffffffffffffffffffffffffffffffffffffff021916908373ffffffffffffffffffffffffffffffffffffffff16021790555050565b600260009054906101000a900473ffffffffffffffffffffffffffffffffffffffff1681565b600081600154029050919050565b6000809054906101000a900473ffffffffffffffffffffffffffffffffffffffff1673ffffffffffffffffffffffffffffffffffffffff163373ffffffffffffffffffffffffffffffffffffffff1614151561072d57600080fd5b600073ffffffffffffffffffffffffffffffffffffffff168173ffffffffffffffffffffffffffffffffffffffff161415151561076957600080fd5b8073ffffffffffffffffffffffffffffffffffffffff166000809054906101000a900473ffffffffffffffffffffffffffffffffffffffff1673ffffffffffffffffffffffffffffffffffffffff167f8be0079c531659141344cd1fd0a4f28419497f9722a3daafe3b4186f6b6457e060405160405180910390a3806000806101000a81548173ffffffffffffffffffffffffffffffffffffffff021916908373ffffffffffffffffffffffffffffffffffffffff160217905550505600a165627a7a723058203a4f69f72b86a9f29e2364f2aa0644b61aa7c7246c5d8264e751c85d4644bbde0029",
  "source": "pragma solidity ^0.4.21;\ncontract Ownable {\n\n    address public owner;\n\n\n    event OwnershipTransferred(address indexed previousOwner, address indexed newOwner);\n\n\n    /**\n     * @dev The Ownable constructor sets the original `owner` of the contract to the sender\n     * account.\n     */\n    function Ownable() public {\n        owner = msg.sender;\n    }\n\n    /**\n     * @dev Throws if called by any account other than the owner.\n     */\n    modifier onlyOwner() {\n        require(msg.sender == owner);\n        _;\n    }\n\n    /**\n     * @dev Allows the current owner to transfer control of the contract to a newOwner.\n     * @param newOwner The address to transfer ownership to.\n     */\n    function transferOwnership(address newOwner) public onlyOwner {\n        require(newOwner != address(0));\n        emit OwnershipTransferred(owner, newOwner);\n        owner = newOwner;\n    }\n\n}\ncontract ScheduleContract is Ownable {\n\n    event ScheduledEvent(address indexed target, bytes32  indexed queryId, uint indexed timestamp, uint gasLimit);\n    uint gasprice = 20000000000;\n    address public cbAddress = 0x911eac91a26019f968bbba2a7b7aaa9afa12ab3d;\n    bytes32[] dsources;\n    mapping (address => uint) reqc;\n\n    function ScheduleContract(){\n\n    }\n    modifier costs(uint gaslimit) {\n        uint price = gasprice * gaslimit;\n        if (msg.value >= price){\n            uint diff = msg.value - price;\n            if (diff > 0) msg.sender.send(diff);\n            _;\n        } else throw;\n    }\n\n\n    function setCbAddress(address callbackAddress) onlyOwner {\n        cbAddress= callbackAddress;\n    }\n\n    function getPrice(uint _gaslimit) view returns(uint256 gasPrice) {\n        return gasprice * _gaslimit;\n    }\n    function getGasPrice() public view returns(uint256) {\n        return gasprice;\n    }\n    function setGasPrice() public onlyOwner payable {\n        require(msg.value > 10000000000 wei);\n        gasprice = msg.value;\n    }\n    function withdrawFunds(address _addr) onlyOwner {\n        _addr.transfer(address(this).balance);\n    }\n    function schedule(uint _timestamp, uint256 _gaslimit) payable  costs(_gaslimit) returns (bytes32 _id){\n\n        if ((_timestamp > now + 3600*24*60) || (_gaslimit > block.gaslimit)) throw;\n        _id = keccak256(this, msg.sender, reqc[msg.sender]);\n        reqc[msg.sender]++;\n        ScheduledEvent(msg.sender, _id, _timestamp, _gaslimit);\n    }\n}\n",
  "sourcePath": "/home/chuonghd/Project/smartcontract/clolottery/backend/contracts/ScheduleContract.sol",
  "compiler": {
    "name": "solc",
    "version": "0.4.21+commit.dfe3193c.Emscripten.clang"
  },
  "schemaVersion": "2.0.0",
  "updatedAt": "2018-10-07T03:27:47.839Z"
}